:020000040000FA
:1000000018270020F902000001030000030300008C
:1000100005030000070300000903000000000000C2
:100020000000000000000000000000000B030000C2
:100030000D030000000000000F030000110300008A
:10004000130300001303000029080000ED04000062
:10005000FD0400001303000013030000130300005D
:100060001303000013030000130300001303000038
:100070001303000013030000130300001303000028
:100080001303000013030000130300001303000018
:100090001303000013030000130300001303000008
:1000A00013030000130300001303000013030000F8
:1000B0001303000013030000000000000000000014
:1000C00013030000130300001303000013030000D8
:1000D00013030000130300001303000000000000DE
:1000E0000000000000000000000000000000000010
:1000F0000000000000000000000000000000000000
:1001000000000000000000000000000000000000EF
:1001100000000000000000000000000000000000DF
:1001200000000000000000000000000000000000CF
:1001300000000000000000000000000000000000BF
:1001400000000000000000000000000000000000AF
:10015000000000000000000000000000000000009F
:10016000000000000000000000000000000000008F
:10017000000000000000000000000000000000007F
:10018000000000000000000000000000000000006F
:10019000000000000000000000000000000000005F
:1001A000000000000000000000000000000000004F
:1001B000000000000000000000000000000000003F
:1001C000000000000000000000000000000000002F
:1001D000000000000000000000000000000000001F
:1001E000000000000000000000000000000000000F
:1001F00000000000000000000000000000000000FF
:10020000DFF80CD000F0BAF800480047F50C000009
:100210001827002030B4044654E8000F0D4644E887
:100220000053002BF8D1156030BC704730B4044641
:1002300054E8000F40EA010544E80053002BF7D1D1
:10024000156030BC704730B4044654E8000F00EA33
:10025000010544E80053002BF7D1156030BC70470E
:1002600030B4044654E8000F80EA010544E8005326
:10027000002BF7D1156030BC704730B4044654E809
:10028000000F00EB010544E80053002BF7D1156087
:1002900030BC704730B4044654E8000FA0EB0105B1
:1002A00044E80053002BF7D1156030BC704770B4A0
:1002B00004464FF0000054E8006F0D68AE4207BFDF
:1002C00044E80023012044E800630E60002B1CBFBB
:1002D0000020F0E770BC704730B4044654E8000FCB
:1002E00088422CBF451A054644E80053002BF5D13F
:1002F000156030BC7047000006488047064800473C
:10030000FEE7FEE7FEE7FEE7FEE7FEE7FEE7FEE7C5
:10031000FEE7FEE70D0500000102000000487047FF
:10032000682C000040EA01039B0703D009E008C9DC
:10033000121F08C0042AFAD203E011F8013B00F8AA
:10034000013B521EF9D27047D2B201E000F8012BF6
:10035000491EFBD270470022F6E710B513460A4645
:1003600004461946FFF7F0FF204610BD421C10F866
:10037000011B0029FBD1801A70470000064C074D75
:1003800006E0E06840F0010394E807009847103465
:10039000AC42F6D3FFF738FF082D0000282D0000EF
:1003A00010B58121412002F0B5FB08B100F094FAAC
:1003B0000B21422002F0AEFB08B100F08DFA0121C2
:1003C000432002F0A7FB002803D0BDE8104000F056
:1003D00083BA10BD38B501226946102001F0B8FE7D
:1003E00005001E481E49A0EB01004FEAD0004FF067
:1003F000050101EB004406D020461AA101F066F980
:10040000284600F069FA20469DF800201CA101F062
:1004100061F99DF800000D281FD020461EA101F0B3
:1004200055F9012269460F2001F092FE050006D021
:1004300020461EA101F04AF9284600F04DFA204658
:100440009DF800201FA101F045F99DF80000E0286B
:1004500003D0204610A101F039F938BD582D000015
:10046000382D0000424831373930474C4320696EFF
:1004700061636365737369626C650D0A0000000057
:10048000424831373930474C43205061727420491B
:10049000443A202558000000424831373930474C53
:1004A00043206E6F7420666F756E640043616E2723
:1004B0007420616363657373204248313739304774
:1004C0004C430000424831373930474C43204D41BE
:1004D0004E55464143545552455220494420566199
:1004E0006C7565203D20307800000000014902480D
:1004F00001F06ABFA40000200030004002494FF024
:10050000402001F061BF0000D8000020F0B5B548E0
:100510000023021D0178101D01254FF0805406298B
:100520000BD11678360708D10678C6F30316032ECA
:1005300006D0042E04D0052E02D0062907D00EE0E6
:10054000B4F82463A84FC6F304263E6002E0167890
:10055000360704D10678C6F30316032E02D0062907
:1005600004D00FE0A24FA14E7E670EE0167836074A
:1005700008D10678C6F30316032E06D0042E04D045
:10058000052E02D0062907D00EE0D4F84462994F18
:10059000C6F342363E6002E01678360704D106788C
:1005A000C6F30316032E02D0062906D011E0924EA0
:1005B000376827F0807737600EE01678360708D165
:1005C0000678C6F30316032E06D0042E04D0052E9B
:1005D00002D006290AD011E04FF08046C6F80C314F
:1005E000C6F81031834E361F336002E016783607A6
:1005F00004D10678C6F30316032E02D0062905D0CF
:100600000CE07C4F032664373E600AE0167836071C
:1006100004D10678C6F30316032E02D006290DD0A6
:1006200014E0764F05263E60744E78363560734E82
:10063000083633603F263F1D3E6002E016783607DD
:1006400004D10678C6F30316052E02D0062957D02A
:1006500062E06B4E36686B4F3E60694E361D366801
:100660003F1D3E60664E083636683F1D3E60644E54
:100670000C3636683F1D3E60614E103636683F1DB1
:100680003E605F4E143636683F1D3E605C4E183645
:1006900036685C4F20373E60594E1C3636683F1D29
:1006A0003E60574E203636683F1D3E60544E24361D
:1006B00036683F1D3E60524E283636683F1D3E600C
:1006C0004F4E2C3636683F1D3E604D4E30363668F4
:1006D0004C4F40373E604A4E343636683F1D3E60D0
:1006E000474E383636683F1D3E60454E3C363668CC
:1006F0003F1D3E60424E403636683F1D3E6002E080
:100700001678360708D10678C6F30316032E06D0EE
:10071000042E04D0052E02D0062907D019E0D4F803
:100720005812394A01F04F01116002E011780907AF
:100730000FD10078C0F30310032803D0042801D0A0
:10074000052806D131480168C90702D06FF00101C0
:100750000160D4F83001062808D1D4F83401062805
:1007600004D12B48016841F480610160224874384B
:10077000016841F470010160BFF34F8FBFF36F8FC9
:100780004FF01021D1F80002002803DBD1F8040259
:10079000002822DA1F4A15601F480468002CFCD08C
:1007A0001524C1F800420568002DFCD0C1F80442B0
:1007B00001680029FCD0136001680029FCD0BFF358
:1007C0004F8F0D48F0380168144A01F4E06111437D
:1007D0000160BFF34F8F00BFFDE71249104808606A
:1007E000F0BD0000E00F00F0403501400DF0ADBA63
:1007F00000C007403C050040FCED00E01056004002
:100800000404001020C50040E40E00400004004035
:100810003C17004004E5014000E401400400FA05F3
:100820000090D003A00000200148006800470000AD
:100830002400002002E008C8121F08C1002AFAD1D3
:1008400070477047002001E001C1121F002AFBD150
:100850007047000072B600F0D1FF00BF00F01EFE2E
:100860000028FBD111481249401AC408012000EBAE
:10087000044010A100F02AFF11480068C00700D012
:1008800000BE022000EB04400EA100F01FFFBFF3EA
:100890004F8F0B48E43801680E4A01F4E0611143C0
:1008A0000160BFF34F8F00BFFDE70000582D00002F
:1008B000382D0000466174616C206572726F7200A1
:1008C000F0ED00E053797374656D207265736574A3
:1008D000000000000400FA050EB500210091CDE9EA
:1008E00001106A4644F20100FFF7B4FF0EBD00F0AC
:1008F00003B800F009B8000072B602480168491C4C
:10090000016070472C00002003490868401E086001
:1009100000D162B6704700002C0000202DE9F041A4
:10092000064608680C46411C4FF0A0474FF00105F1
:1009300006D005FA00F1C7F80815206800F0B4FCED
:100940006068411C02D0002100F09CFC3168A06965
:10095000C1F82405607D227D31681043C1F86C0523
:10096000D4E900123068C0F81425C0F80C15207DB9
:10097000012815D1A068411C02D0002100F082FCA2
:10098000E068411C05D08540C7F80855E06800F0D4
:100990008BFCD4E902123068C0F80825C0F81015A5
:1009A000BDE8F0812DE9F041064608680C46411C7F
:1009B0004FF0A0474FF0010506D005FA00F1C7F847
:1009C0000815206800F07AFC6068411C02D0002104
:1009D00000F061FC3168A069C1F82405607D217DCB
:1009E00032680843C2F86C05D4E900123068C0F8D8
:1009F0000C15C0F81425207D012815D1A068411CD4
:100A000002D0002100F047FCE068411C05D0854081
:100A1000C7F80855E06800F051FCD4E902123068CC
:100A2000C0F80825C0F81015BDE8F0812DE9F047A1
:100A30000546861C90460F464FF001090020FFF73F
:100A400056FF1B4C20683860D4E90001401AA168A9
:100A500004F21C47081A0EE00121384600F000FAA3
:100A600000F0FAF80146384600F0FAF9D4E900013E
:100A7000401AA168081A401C8642EDD8B8F1000F50
:100A800003D0052065F3891002E0062065F39F502E
:100A9000A2682168114004EB8101C86020683044DD
:100AA00020600020FFF725FF4846BDE8F0870000E2
:100AB000F402002030B482680468531C8360A1549F
:100AC000D0E901128A4202D330BC00F09ABA30BC9D
:100AD00070470000034803C8814201D101207047DC
:100AE00000207047F402002010B50021024800F0F9
:100AF000C2F980F3100010BD100700202DE9FC5F43
:100B00000E008346DDE90C47C6F100009846924688
:100B1000814600D40846012503E000BF90FBFAF0AF
:100B20006D1C5045FADAA84500D9454624B1002E7F
:100B300001DB780700D5641EB80702D5B8F1000FB5
:100B40000AD0F80708D13CB1A54205D22021584669
:100B5000641EFFF7AFFFF6E7002E02DA4E462D21A6
:100B600002E0780703D52B215846FFF7A3FF07F0D3
:100B7000030002280BD1B8F1000F08D13CB1A54207
:100B800005D230215846641EFFF794FFF6E7CDE901
:100B90000047434652463146584601F061FFBDE8E2
:100BA000FC9F000070B50D46044600684FF4887144
:100BB00000F032FF4FF49071206800F02DFF4FF4E9
:100BC0009271206800F028FF4FF4A271206800F0B5
:100BD00023FF20681249C0F804132068690740F316
:100BE0000730090E002806DA00F00F0000F1E020BF
:100BF00080F8141D03E000F1E02080F80014206864
:100C0000012140F3073000F01F02914040098000AD
:100C100000F1E020C0F88012C0F8001170BD0000A3
:100C200010030200024600201268530713D502F099
:100C30000300012802D002280CD105E0C2F3831082
:100C40000B68801C184404E00223086803EB9252EE
:100C500010440860012070472DE9FF410026234819
:100C600000F0FBF82148001F074600F0F6F8204C82
:100C700060680090A56800E000986946284004EB91
:100C800080000C30FFF7CEFF0028F5D101AA0099B3
:100C900001EA050304EB8303491CDB6842F82030BA
:100CA000401C00910228F2D3019800F003000128B3
:100CB0000BD0022810D10198032101EB905000992C
:100CC000BDF80A6001EB900005E00198BDF80A60EC
:100CD000C0F3831008440090384600F0BBF808B118
:100CE0000098606004B03046BDE8F0810C07002039
:100CF000F40200200021084600F04AFD08B1FFF789
:100D0000EBFD00F0BDFB01F029FBFFF763FBFFF7F4
:100D100047FB194A1949DFF85C900520511AC908A8
:100D2000A9F1040800EB014404221249542001F007
:100D30000FFAB9F80220A8F80020B9F80000A8F8C6
:100D40000200454620460EA100F0C4FC20466A88F9
:100D50000FA100F0BFFC00BF00F0A0FB0028FBD1FA
:100D60000F4D19264FF47A47691C38468847761E7E
:100D7000FAD1D9E704000020582D0000382D0000DA
:100D80004C4544204F6E3A2025640D0A00000000B7
:100D90004C45445F4F66663A2025640D0A0000000A
:100DA000402B00002DE9F047C5881E1DB6FBF5F766
:100DB0008946B6FBF5F1044605FB176C40791668C9
:100DC0006843DDF820A0F718001F874200D9C61A33
:100DD000166001E02468491E0029FBD1A5EB0C0731
:100DE0008846B74216D818E004EB0C00001D09EB4A
:100DF0000803BAF1000F3A4602D00146184600E057
:100E00001946FFF78FFA2468F61B4FF0000CB84420
:100E1000B54201D9374600E02F46002EE4D1BDE8A7
:100E2000F087000030B5024651B100F0CFFC002140
:100E3000074C08E034F821301568AB4202D111604C
:100E4000002030BD491C8142F4D3052030BD000094
:100E500000000000002100F009B8012100F010B8E6
:100E600008B56A46FFF709FA009808BD08B56A4652
:100E7000FFF7E9F908BD08B56A46FFF7CBF908BDE9
:100E800008B56A46FFF7D2F9009808BD08B56A466A
:100E9000FFF700FA009808BD70B504460025284603
:100EA000FFF725FD21686268086890420ED9401E50
:100EB00008600178238AE26801FB0325227A216811
:100EC000101AC0B20A79824200D208710020FFF7DE
:100ED00010FD284670BD70B505460C460020FFF792
:100EE00006FDE868298A201AB0FBF1F12A6810682B
:100EF000431C13600170BDE870400020FFF7F9BC8F
:100F000010B530B1017A42680368891AC9B21A6013
:100F100006E00E2010BD03681A68541C1C60117096
:100F2000491EC9B2F7D2006800210171084610BD00
:100F30002DE9F041064604780B4815460F4640F867
:100F40002420083040F82430487B10B1084601F0D6
:100F5000AFF90DB1054A00E0002223463946301DA5
:100F6000BDE8F04100F0AABD080000208923000080
:100F700038B5001D049C009400F02AFE38BD000026
:100F8000F0B505460478154889B0164640F8242087
:100F9000124A0869121DA2F1080742F82400487F8E
:100FA000385520226846FFF7BDF904942878385C4C
:100FB00048B10EB10A4A00E000226946281D00F03F
:100FC0006DFF09B0F0BD0EB1064A00E0002269468F
:100FD00005F10C0000F034FEF3E700001C000020D7
:100FE0003D290000892700000FB408B503990029A6
:100FF00004D004AA00926A4600F00FF801B05DF830
:1010000014FB10B582680446002A05D0D4E9040315
:10101000216898470020A06010BD2DE9FC4791464B
:101020000C00804676D014F8011B39B125290ED06A
:101030004046FFF73FFD20780028F4D198F80C00D7
:10104000002867D04046BDE8FC47FFF7DABF002024
:10105000012221782B291BD02D2902D0302908D13B
:1010600002E040F0010001E040F00200641C002AB0
:10107000EFD100252A290ED02178A1F130020A2AC9
:1010800011D205EB850201EB4205641C303DF1E70E
:1010900040F00400EAE7D9F800100B1DC9F8003051
:1010A0000968641C0D44217800232E290BD114F803
:1010B000011FA1F130020A2A05D203EB830201EBE2
:1010C0004203303BF3E76C290DD068290BD0692926
:1010D00021D00BDC252918D0582931D063290ED016
:1010E000642915D117E014F8011FECE7702969D0C5
:1010F000732932D075291BD0782909D120E0D9F87D
:101100000000011DC9F8001001784046FFF7D2FC2D
:10111000641C90E76CE0D9F800100A1DC9F80020A3
:101120000968CDE900500A224046FFF7E7FCEFE7E7
:10113000D9F800100A1DC9F8002009680A2206E043
:10114000D9F800100A1DC9F8002009681022CDE95D
:101150000050404601F084FCDAE7D9F8001000277F
:101160000A1DC9F800200E68C00705D112E04046EC
:10117000761C7F1CFFF79EFC31780029F7D104E034
:10118000202140466D1EFFF795FCBD42C0D9002DC1
:10119000F6D1BDE74EB13046FFF7E8F8074604E068
:1011A000202140466D1EFFF785FCBD4206D9002D6B
:1011B000F6D103E04046761CFFF77CFC317800292D
:1011C000F8D1A5E7D9F80000011DC9F8001005689D
:1011D00030214046FFF76EFC78214046FFF76AFC5D
:1011E00008200021CDE90001034610222946B0E77E
:1011F000BDE8FC8770B541EA4201DDE904564FF0D5
:10120000A04441EA830141EA052104EB800041EA60
:101210000641C0F8001770BD70B541EA4201DDE932
:1012200004564FF0A04441EA830141EA052104EB52
:10123000800041EA0641C0F8001770BD70B541EA70
:101240004201DDE904564FF0A04441EA830141EA3E
:10125000052104EB800041EA0641C0F8001770BD8B
:101260001CB5002100910B4601220191FFF7D4FF2C
:101270001CBD1CB5002100910B4601220191FFF716
:10128000DDFF1CBD1CB500220B46009211460192E9
:10129000FFF7C2FF1CBD1CB500220B460092114691
:1012A0000192FFF7CBFF1CBD1CB5002100910B463E
:1012B000012201911146FFF7AFFF1CBD1CB50021B3
:1012C00000910B46012201911146FFF7B7FF1CBDAB
:1012D0004FF0A04201218140C2F80815704700007C
:1012E00030B5154A01460020D2F8104423460AE0E2
:1012F000DB681D79854205D1401C0A28F6DB4FF0DA
:10130000FF3030BD1B68002BF2D1431CF9D0CB68F5
:101310001871D2F8103443B1DB68CC681B682360C5
:10132000D2F81024D268116030BDC2F81014C96818
:1013300000220A6030BD0000F4020020F0B595B034
:101340001C4615460F4608461A9E00F011FB182150
:1013500009A8FFF700F80E96CDE9095400230822EA
:1013600003A9384600F019FB05980690BDF8100057
:10137000ADF81C00BDF81200ADF81E0000208DF87D
:1013800021000398082600F00300012802D002285B
:1013900018D032E003983346850AC0F3C2008DF8B6
:1013A000200003980FA9C0F38314A200384600F070
:1013B000F4FA09A8009006AB22460FA9284600F0CF
:1013C00033FA1AE00398840DC0F3C2008DF82000B0
:1013D000082C01D2254600E0082533462A460FA9ED
:1013E000384600F0DAFA2E44641B09AB06AA2946F7
:1013F0000FA800F077F9002CEAD1384600F0BEFAC9
:1014000015B0F0BD7047012001F0DCB9084810B5F7
:101410000178084A515C19B1001D00F0CBFD02E0D3
:101420000C3000F0D9FCBDE81040002001F0CAB932
:10143000340000201800002008B5034A0092402321
:10144000024AFFF77BFF08BDE52100005C01002098
:101450000A4A012902EBC00007D0022907D003295C
:1014600007D0042907D000207047022070470420CD
:10147000704700797047407970470000382D0000B0
:1014800010B5FFF7C0FF04210348FFF729FF024909
:101490000120C968487110BD282D00002DE9F047D2
:1014A0008CB0FFF717FB18B100200CB0BDE8F08737
:1014B0007D4C0020C4F81804BFF34F8F6068029081
:1014C000A5684FF00008284004EB80000CE000BF46
:1014D000D4F8180470B921680298814201D861607B
:1014E000E2E7284004EB80000C3002A9FFF79AFBEA
:1014F0000028EDD1002003AA029901EA050304EBBC
:101500008303491CDB6842F82030401C029102280A
:10151000F2D3039800F00300022802D001284DD036
:10152000A7E003985022810D8946B2EB905F00D866
:1015300050210E4666F39F50039008315B4800F03F
:10154000CEF9070078D000F013FA4346082203A929
:10155000384600F02AFA029908F1080A2940681A68
:101560008000001D864222D94F4D0C3530B1C2B2E9
:1015700004EB8101301A90460C3104E02946F2B2A6
:10158000002590462846C6B25346384600F00DFA6C
:101590000AEB080325B132462946384600F005FA21
:1015A000029909F1030001EB900002903BE004EB8B
:1015B00081015346324638460C31EFE70398C0F3B9
:1015C0008310062800D30620039960F38911C1F324
:1015D0008310801C03918100344800F080F90700DB
:1015E00047D000F0C5F94346082203A9384600F069
:1015F000DCF908F1080800260FE00298434600EAEB
:101600000501401C04EB81010290042238460C3194
:1016100000F0CBF908F10408761C0398C0F383109E
:10162000B042EAD847B1D4F81054D4F8180478B1CD
:10163000384600F0A3F931E01BE0E8684079012862
:1016400004D12A682846394612689047E868056838
:10165000002DF2D1384600F091F90020FFF747F94C
:10166000D4F8180408B9029860600020FFF741F927
:1016700014E0D4F8104405E02168204689688847C2
:10168000E0680468002CF7D109480A49401AC008EC
:10169000022101EB004008A100F018F8FFF71AFA48
:1016A00080F0010001E70000F4020020602D00003E
:1016B000582D0000382D00004261636B656E647325
:1016C00020666C75736865640000000000231A468C
:1016D00000F0A8BD08B5012300926A4600F0A2FD03
:1016E00008BD00002DE9F0470E4680461C46924694
:1016F00008293ED894F80C90002020731946104613
:1017000000F0CEFC0025B54206D218F805201AA13B
:101710002046FFF769FC03E019A12046FFF764FCAF
:101720006D1C082DEFD317A12046FFF75DFC0025A7
:10173000B54210D218F80570FEF7F0FD0068C05DE4
:1017400010F03E0F01D03A4600E02E220EA12046B6
:10175000FFF74AFC03E00DA12046FFF745FC6D1C96
:10176000082DE5D301222146504600F07BFC84F889
:101770000C90BDE8F0870000202530327800000092
:10178000202020007C0000002563000020000000D5
:101790000B4810B5FF218160002101604160C0F855
:1017A0001814C0F8141480F82014064800F0E4F867
:1017B000002803D1044800F000F9002010BD00000B
:1017C000F4020020602D0000D82B000002480349DD
:1017D000401AC00870470000602D0000382D00003E
:1017E00013B56846FFF71EFB08B100201CBD024878
:1017F000009950F831001CBD382D000070B5094823
:101800000125D0F8104480F8205407E0E0684571C5
:101810002168204649688847E0680468002CF5D1B3
:1018200070BD0000F40200202DE9FF4781460C9DA9
:1018300000200C462F7B28739846164629461846EA
:1018400000F02EFC072E42D2DFE806F004090F1646
:101850001F2A360049462846FFF7C6FB37E04946AF
:1018600028462268FFF7C0FB31E0D4E9002349464F
:101870002846FFF7B9FB2AE0A0680090D4E90023CE
:1018800049462846FFF7B0FB21E0D4E90201CDE943
:101890000001D4E9002349462846FFF7A5FB16E0DE
:1018A00004F1080007C88DE80700D4E90023494681
:1018B0002846FFF799FB0AE004F108000FC88DE8FD
:1018C0000F00D4E9002349462846FFF78DFB00228C
:1018D0002946404600F0C6FB2F73BDE8FF872DE97F
:1018E000F041058A80462D1F4819C01CB0FBF5F059
:1018F000C6B24046FFF7D0FA041E19D0002020716E
:1019000001206071E58000272546761EC4F800801E
:101910000BE04046FFF7C0FA60B16179491C617184
:10192000286005467F1CC0F80080B742F1D32046EE
:10193000BDE8F081204600F002F80020F8E72DE92C
:10194000F041457901466B1E002201E00968521CF6
:101950009A42FBD30F680146002605E038460C6822
:10196000FFF7B9FA2146761CAE42F7D3BDE8F08105
:101970000121001DFFF774BAFFF7C2BA10B5044683
:101980000121001DFFF782FA10F0FF0F04D120465D
:10199000BDE81040FFF7D3BF10BD1CB50192012276
:1019A000009201AAFFF7FEF91CBD1CB501920022AE
:1019B000009201AAFFF7F6F91CBD82680021916030
:1019C00082681161826851618268D1608268516069
:1019D0008068016070474058002800D0012070479F
:1019E00008B5002242504058009008BD40580028D9
:1019F00000D00120704708B50022425040580090A6
:101A000008BDD0F80403084000D0012070474058BA
:101A1000002800D00120704708B5002242504058ED
:101A2000009008BD002802D0014980010847704796
:101A3000712B00000121B1EB507F01D101207047D3
:101A4000002070470121B1EB507F01D10120704788
:101A50000020704770B50D4600F06EFB04000FD0FB
:101A60000020FEF744FF207920B10020FEF741FF5F
:101A7000112070BD0120256020710020FEF739FF84
:101A8000002070BD10B500F057FB002802D00021E7
:101A90000160017110BD00000179006801EB810255
:101AA00002EBC101044A02EB81010622C0F80025C5
:101AB000022081F82D007047A40000202DE9FC4190
:101AC0000646007917460D4600EB8001324A01EBCD
:101AD000C00102EB8104984694F82D1011B1082042
:101AE000BDE8FC812D4951F820103068FFF7B2FFA6
:101AF00008B11120F4E7C4E900780027A76084F852
:101B0000307084F82F70687B84F832004FF006083C
:101B1000CDE9008703233A4639462868FFF76AFB78
:101B2000CDE900870022032311466868FFF762FBB6
:101B3000D5E900123068C0F80815C0F80C25A9686E
:101B4000C0F824152168012009B331682A7B41F3CC
:101B5000073100294FEA421206DA01F00F0101F1C4
:101B6000E02181F8142D03E001F1E02181F8002447
:101B7000316841F3073101F01F0300FA03F249090C
:101B8000890001F1E021C1F88022C1F8002184F828
:101B90002D000020A4E70000A4000020782B000006
:101BA000F0B585B015460E4607461C461422074977
:101BB0006846FEF7B7FB8DF801600022694638469B
:101BC0000395019400F020F805B0F0BD802B0000D3
:101BD0002DE9F04186B00E4680461C46154614217C
:101BE00068460C9FFEF7B7FB8DF8016003950194E2
:101BF0000FB1202200E000226946404600F004F8C0
:101C000006B0BDE8F081000030B40379006803EB52
:101C1000830404EBC303054C04EB830413460A4618
:101C20000146204630BC00F075BC0000A400002036
:101C30000149024800F0EEBD0C01002000200040E8
:101C40002DE9F0410546007916460F4600EB4001AC
:101C50002D4A01EBC00102EB810494F82A1011B166
:101C60000820BDE8F081294951F820102868FFF7C5
:101C7000F1FE08B11120F4E739462846FEF74EFE82
:101C800066603869206030004FF001062FD03F7F3A
:101C90004FF48E712868FFF7AEFE4FF4A2712868EA
:101CA000FFF7A9FE28681A49C0F8041328684FEA0C
:101CB000471140F30730002806DA00F00F0000F16A
:101CC000E02080F8141D03E000F1E02080F800140B
:101CD000286840F3073000F01F0206FA02F14009BD
:101CE000800000F1E020C0F88012C0F800112868E0
:101CF0000421C0F800150020A061E06184F82900EB
:101D000044F8140FA675ACE70C010020942B0000DA
:101D1000800002002DE9F047054600790B4600EBF4
:101D2000400101EBC000234901EB8004284600F08C
:101D300043F810B11120BDE8F0874FF00008C4F857
:101D40002080A360626184F828804FF48E76474635
:101D500031462868FFF74FFE28684FF00109C0F8A8
:101D600008902146286800F0F1FC606800BBD5F8B7
:101D700000A00EE094F8280008B10F2716E03146C5
:101D80005046FFF733FE0028F4D02146504600F0BD
:101D9000DDFC216A60698142F1D331462868FFF792
:101DA00025FE0028F9D02868C0F80C90C4F81480EB
:101DB0003846C0E70C010020007900EB400101EB40
:101DC000C000044901EB80004069002800D00120D8
:101DD000704700000C0100202DE9F047044600790F
:101DE0004FF0000900EB400101EBC000254901EB79
:101DF00080072068C0F80095786880B12068224983
:101E0000C0F808132068012140F3073000F01F02DA
:101E100091404009800000F1E020C0F88011206866
:101E2000D0F80C25D0F81485D0F80865D0F81055F6
:101E30004FF0FF31C0F81415C0F80C152068C0F839
:101E40000815C0F81015501C02D01046FFF708FA0C
:101E5000B8F1FF3F02D04046FFF702FA681C02D0FB
:101E60002846FFF7FDF9701C02D03046FFF7F8F95D
:101E70002068FFF707FE87F82A90C7F80490BDE8AE
:101E8000F08700000C010020840202000149024892
:101E900000F06CBD38010020002000402DE9F04129
:101EA0000546164600790F46154A00EBC00102EBC5
:101EB000810494F8201011B10820BDE8F081114987
:101EC00051F820102868FFF7C5FD08B11120F4E78C
:101ED00039462846FEF766FD6660386920601EB107
:101EE000397F2846FEF75EFE28680821C0F80015F5
:101EF0000020A061E0610121606184F82010DCE72E
:101F000038010020982B00002DE9F04704460E46CA
:101F10000079204900EBC00001EB800517463046F0
:101F2000FFF790FD30B1204600F036F820B11120C7
:101F3000BDE8F0871020FBE76F61AE604FF490764C
:101F4000002731462068FFF767FD4FF4AC78414623
:101F50002068FFF761FD2068AA686969C0F8442518
:101F6000C0F84815206801218160686878B9B146D9
:101F700049462068FFF74BFD064641462068FFF7BB
:101F800046FD0643F4D000B10F27002068613846B3
:101F9000CEE70000380100200079054900EBC000C1
:101FA00001EB80004069002800D00120704700004C
:101FB000380100202DE9F04704460079274900EB5D
:101FC000C00001EB800720684FF00009C0F80095C1
:101FD000786880B120682249C0F808132068012180
:101FE00040F3073000F01F0291404009800000F1EB
:101FF000E020C0F880112068D0F80C25D0F81485B6
:10200000D0F80865D0F810554FF0FF31C0F80C1526
:10201000C0F814152068C0F80815C0F81015501C39
:1020200002D01046FFF725F9B8F1FF3F02D0404635
:10203000FFF71FF9681C02D02846FFF71AF9701C39
:1020400002D03046FFF715F92068FFF71BFD87F82F
:102050002090C7F80490BDE8F08700003801002008
:102060001003020010B50C46017A052908D0407A09
:1020700038B1084808A102682046FEF7B5FF00E025
:102080001AB106A12046FEF7AFFF2046BDE810407A
:10209000FEF7B7BF7C000020257300000D0A00008A
:1020A00038B5C3880D46044633B114A0009015A27C
:1020B00016A12846FEF798FF217A05291CD0607AE0
:1020C00048B1A088FFF7C4F9164951F8202016A19D
:1020D0002846FEF789FFA0880021FFF781FB034611
:1020E0001049207A143951F8202001B02846BDE863
:1020F00030400EA1FEF778BF38BD00001B5B306D8D
:10210000000000001B5B313B33316D0025734C6FC9
:1021100067732064726F70706564202825642925B8
:10212000730D0A007C000020257300003C25733EDF
:102130002025733A200000000349884201D103485A
:10214000704700207047000000200040240000205D
:1021500037B582B0002015460C460090012302AA34
:102160005B210748FEF704FF002806D104485B21E5
:10217000001D2246EBB2FFF713FD05B030BD000095
:10218000482B000070B5054688690C4600284FF4BE
:10219000847128460AD0FFF72EFCD5F81805626A2C
:1021A000E1688854606A401C606270BDFFF723FCE0
:1021B000D5F8180570BD1FB501238DF80030CDE9A5
:1021C0000121D0E90012684690471FBD1FB50123C9
:1021D0008DF800308DF808100192D0E900126846A1
:1021E00090471FBD70B50D4C0020D2B22070201D4D
:1021F0000B4D0378EB5C1BB1001DFFF785FE02E081
:102200000C30FFF787FD08B1FEF766FB6078002809
:1022100002D021780029FAD070BD000030000020E3
:10222000180000202DE9F84F204D924689460646B9
:102230009846012269461846AF68FEF7F7FB58B387
:10224000009800210446801C09E000BF00EA070353
:102250005AF8212005EB8303401C491CDA604145F4
:10226000F4D34FEA164AFEF73FFC4AEA0041601CED
:10227000384005EB80003C4005EB8402C160D0682B
:1022800066F3C50068F3891069F39F2020F003000E
:10229000401C20F00400D06095F8200402E000BF4C
:1022A000FFF7FCF80028FBD1BDE8F88FF40200200E
:1022B0002DE9F041044640F20C602168890001F1EB
:1022C000A041C1F800076168890001F1A041C1F88F
:1022D00000072068FEF7FCFF6068FEF7F9FF216841
:1022E00040F20D60890001F1A041C1F8000761686A
:1022F000890001F1A041C1F800070420FFF792FB1B
:1023000000274FF0A04601252179D6F81005C840D6
:1023100010F0010F02D0002F1DD010E0217805FA37
:1023200001F0C6F80C050420FFF77CFB2068FEF7DF
:10233000CFFF0420FFF776FB7F1C092FE4DB207919
:102340008540C6F80C550420FFF76CFB6068BDE8BB
:10235000F041FEF7BDBFBDE8F08100001FB5094B9D
:102360000FCB8DE80F00074800231A466946103846
:10237000FEF7DEFD08B1FEF7AFFA02480C38FFF7B2
:102380008BFB1FBD582B00001FB50A4601788DF846
:10239000001001798DF8041041798DF80510017A4B
:1023A0008DF80610017B8DF80710016902914069D4
:1023B0000390044850F82210083850F8222068464C
:1023C00090471FBD100000202DE9F04F0D464FF43F
:1023D000927887B004464146FFF7FDFA4FF0020BB2
:1023E00001264FF4827740B141462046FFF7F8FAC4
:1023F00039462046FFF7EFFAC0B34FF4827120460A
:10240000FFF7E9FADFF808810100EA4605F10C0957
:102410004FF000073ED04FF482712046FFF7E0FAFC
:10242000142249460AF10400FDF77CFF95F82E00BE
:1024300058B1287B012827D0D4F84C050290287B7E
:10244000022824D0D4F84C0503904FF4B0712046F4
:10245000FFF7C6FA4FF4AE712046FFF7C1FA95F8C0
:102460003000A8B395F82E0090BB37E0FFE7A868CE
:10247000C4F80803C5F808B0A868C4F804032662C5
:10248000666107B0BDE8F08FD4F83C05D6E7D4F814
:102490003C05D9E74FF4A4712046FFF7A1FA287B49
:1024A00068B14FF40070C4F80002801CA860C4F842
:1024B0000883A868C4F80403A6602662E1E7142232
:1024C00049460AF10400FDF72DFF95F8300028B9C0
:1024D0000020C4F80002AF60C4F80883D4F8C40434
:1024E000C4F8C404810702D58DF8006006E04007F7
:1024F00002D58DF800B001E08DF8007095F830003D
:1025000008B985F82F70D5E9002168469047B8E7EB
:1025100002029C012DE9F05F06461F4615460C4657
:102520004FF0000A4FF0080B4FF48279D068FFF7A4
:1025300081FA00287ED08348C4F8080396F82F005B
:1025400028B1B068C4F804031120BDE8F09F7807F3
:1025500003D4F80601D4012000E0002086F82F0003
:102560001422294606F10C00FDF7DCFEC7F300102B
:1025700086F830006878C4F888054FF482712046E8
:10258000FFF72EFA4FF492712046FFF729FAF80769
:102590004FF0010800D04046C4F85005B80701D5F7
:1025A000404600E00020C4F84005287800286BD0A1
:1025B00001287CD002284DD0032814D04FF0070A00
:1025C000380704D42878032801D044F80B803068F9
:1025D00000286DD0780702D54FF40070B060B06865
:1025E000C4F80403ABE02869FFF724FA10B34FF4F2
:1025F0008070C4F800026968E868C4F84405C4F84B
:1026000048154FF4A8712046FFF7EAF94FF4B0716E
:102610002046FFF7E5F94FF4A4712046FFF7E0F9F3
:10262000C4F82080C4F808804FF4A8712046FFF752
:10263000D2F900E026E00028F6D04FF4A871204639
:10264000FFF7CEF9A9682869C4F84405C4F848150D
:102650003D4815E06968E868C4F84405C4F84815C1
:102660002869FFF7E7F968B12969A868C4F8341543
:10267000C4F838054FF48450C4F8000240F2022038
:10268000B0609DE7102060E7E9686868C4F8441509
:10269000C4F84805B8060FD54FF48070C4F800029E
:1026A0002948B0604FF4A4794946204601E00CE087
:1026B0001BE0FFF795F905E04FF40070C4F8000245
:1026C000801CB060C4F820807AE7E9686868C4F8C4
:1026D0003415C4F838054FF48050C4F8000240F2B5
:1026E0000220B0604FF0000BECE745464FF48277D4
:1026F0004FF492780BE041462046FFF76CF930B179
:1027000041462046FFF76CF925626561B9464946A6
:102710002046FFF760F90028EDD0D4F8C404C4F8CF
:10272000C404002186F82F1048B10321820701D587
:1027300048F20121400701D548F202218A4650465D
:1027400003E7000002029C010002040070B50C4681
:1027500005464FF48E71FFF74EF9216AA068415C7F
:10276000206A401C2062C5F81C1570BD1FB50022F0
:102770008DF800200291816801914261D0E9001238
:10278000684690471FBD00001FB50A4601788DF8C6
:10279000001041680191017A8DF80810C06803901B
:1027A000044850F82210001F50F822206846904735
:1027B0001FBD000020000020014901200870704763
:1027C0003000002010B588B0044620220E4968462B
:1027D000FDF7A8FD06200090C01F01900290039015
:1027E0004FF0EB7006900CB1084A00E000226946F9
:1027F0000748FEF7C5FB08B1FEF76EF80448001F56
:10280000447008B010BD0000B82B0000B9270000CC
:10281000340000202DE9FF470C4605464FF40071B7
:10282000FFF7EFF801274FF40178002618B34FF4B3
:10283000927949462846FFF7D9F8E0B1494628463B
:10284000FFF7D9F8C5F8088394F8290000B96F603C
:1028500002208DF80000D5F88004C5F880040390AC
:10286000A0690290E0680190A661E661D4E90012D7
:102870006846904728E004212846FFF7C2F818B3BD
:102880004FF484712846FFF7B1F8E8B12146284695
:10289000FFF778FC616AA069884215D1E06938B118
:1028A000E268616AA0612069E6616662E06008E052
:1028B00094F8290000B96F60C5F80883A661E26842
:1028C000616A2046FFF777FC4FF48E784146284630
:1028D000FFF78CF878B1206A6169884202D294F8D7
:1028E000280020B341462846FFF785F8616911B1F9
:1028F0002046FFF73BFF4FF4A27841462846FFF7FA
:1029000075F8002818D041462846FFF774F894F867
:10291000290000B12F60A06900280DD0A661E268EF
:10292000616A04B02046BDE8F047FFF744BC214689
:102930002846FFF70BFFDEE7BDE8FF871FB50A4615
:1029400001788DF8001041680191017A8DF8081026
:10295000C0680390044850F82210001F50F822204D
:10296000684690471FBD0000200000202DE9FF4170
:102970000C464FF4927705463946FFF748F8002693
:10298000C0B139462846FFF747F802208DF800000D
:10299000D5F88004C5F880040390D5F83C058DF87F
:1029A0000800E0680190A661E661D4E9001268467B
:1029B000904723E04FF4887739462846FFF727F8F9
:1029C000E0B139462846FFF727F8D5F83C15A0694D
:1029D000884213D1E06960B1E268D5F8000220F0C6
:1029E0002000C5F80002E069A0612069E661E060AE
:1029F00001E0A661E2682046FFF7E8FB4FF4A2770A
:102A000039462846FFF703F860B139462846FFF7F4
:102A100003F8A06930B1A661D5F83C152046E268FC
:102A2000FFF7D4FB4FF4907739462846FEF7EFFFC7
:102A3000002813D039462846FEF7EEFF60690028CB
:102A40000CD0D5F84C058DF800608DF80800A06812
:102A500001906661D4E9001268469047BDE8FF81A5
:102A60002DE9F05F8346DDE90A4A994690460D4616
:102A70000846012703E000BFB0FBF8F07F1C40458B
:102A8000FAD2B94500D94F465FEACA7012D18CB16B
:102A90005FEA8A7002D5B9F1000F01D0202607E065
:102AA000302605E031465846641EFEF703F80CB1A7
:102AB000A742F7D35FF00106B9F1010F02D9A9F1DE
:102AC000010903E0B5FBF6F0404502D306FB08F62A
:102AD000F2E7DFF83C9000BFB5FBF6F000FB1655BF
:102AE00019F800105846FDF7E5FFB6FBF8F6002E82
:102AF000F2D15FEACA7009D0002C07D0A74205D2F4
:102B000020215846641EFDF7D5FFF5E7BDE8F09F8C
:102B10009C2B00001CB502238DF8040001208DF8C9
:102B20000510009001AA5B210348FEF721FA002856
:102B300001D0FDF7D1FE1CBD482B000000000000B5
:102B40000338FDD87047000000000000003000404E
:102B5000000000000100000003000000040000006D
:102B600000009801020000000000000000000000CA
:102B70000338FDD870470000ED040000FD0400009C
:102B80000100000000000000000000000000000044
:102B900000000000311C00008D1E00003031323377
:102BA00034353637383941424344454639140000FC
:102BB0000D14000005140000FFFFFFFFFFFFFFFFE3
:102BC000FFFFFFFFFFFFFFFF00000000000000000D
:102BD0000000D601060100005C0200207F0000001A
:102BE000DC02002000404040404040404040414125
:102BF00041414140404040404040404040404040D2
:102C0000404040404005020202020202020202026B
:102C10000202020202202020202020202020200268
:102C200002020202020290909090909010101010F8
:102C30001010101010101010101010101010101094
:102C40000202020202028888888888880808080828
:102C500008080808080808080808080808080808F4
:102C60000202020240000000E52B00007761726E54
:102C7000696E670064656275670000001B5B313B2D
:102C800033306D001B5B306D000000001B5B313B7F
:102C900033316D001B5B313B33326D001B5B313BCD
:102CA00033336D001B5B313B33346D001B5B313BB9
:102CB00033356D001B5B313B33366D001B5B313BA5
:102CC00033376D00696E666F000000006572726FC9
:102CD00072000000505253005457494D000000004C
:102CE0005541525400000000554152544500000027
:102CF000756172745F6C6F675F6261636B656E6450
:102D00000000000061707000742D000000000020C1
:102D1000A400000034080000182E0000A4000020C9
:102D20007426000044080000AC2B000000000000E6
:102D3000F02C000048000020D42C0000000000000F
:102D4000D82C000000000000E02C00000000000073
:102D5000E82C000000000000042D00000000030328
:102D60005800002050000020580000209C01002046
:102D7000180000000000000000000000000000003B
:102D80000000000000000000000000000000000043
:102D90000000000000000000000000000000000033
:102DA00000000000000000000000000000200040C3
:102DB00000000000002000400000000000000000B3
:102DC000FF00000000000000000000000000000004
:102DD00000000000000000000000000000000000F3
:102DE000CC2C00006C2C0000C42C0000742C0000C3
:102DF000842C00007C2C00008C2C0000942C000003
:102E00009C2C0000A42C0000AC2C0000B42C000072
:082E1000BC2C00000090D0036F
:0400000500000201F4
:00000001FF
